S025000050726F6A656374202D20456E7669726F6E6D656E74204D6F6E69746F722E737265631E
S11300000C9434000C9449000C9449000C9449005D
S11300100C9449000C9449000C9449000C94490038
S11300200C9449000C9449000C9449000C94490028
S11300300C9449000C9449000C9449000C94490018
S11300400C9449000C9449000C9449000C94490008
S11300500C9449000C9449000C9449000C944900F8
S11300600C9449000C94490011241FBECFEFD8E032
S1130070DEBFCDBF11E0A0E0B1E0E8E2FCE002C0E9
S113008005900D92A634B107D9F70E94D5020C94BD
S113009012060C94000085B18B7F85B980ED8EBD6E
S11300A00DB407FEFDCF8EB51EBC0DB407FEFDCF0B
S11300B08EB595B1946095B9EFE3FCE93197F1F70A
S11300C000C00000089585B18B7F85B984E78EBD9B
S11300D00DB407FEFDCF8EB587E28EBD0DB407FECD
S11300E0FDCF8EB585B1846085B92FEF81EE94E0A4
S11300F0215080409040E1F700C0000085B18B7F23
S113010085B985E78EBD0DB407FEFDCF8EB580EAB7
S11301108EBD0DB407FEFDCF8EB585B1846085B963
S11301202FEF81EE94E0215080409040E1F700C031
S11301300000089585B18B7F85B98AEF8EBD0DB41B
S113014007FEFDCF8EB51EBC0DB407FEFDCF4EB528
S11301501EBC0DB407FEFDCF8EB51EBC0DB407FE4C
S1130160FDCF2EB595B1946095B950E060E070E094
S1130170032E3CE0440F551F661F771F3A95D1F7B5
S1130180302D90E0A0E0B0E0880F991FAA1FBB1F9C
S1130190880F991FAA1FBB1F880F991FAA1FBB1F77
S11301A0880F991FAA1FBB1F842B952BA62BB72B37
S11301B022952F70BC01CD01622B08952F923F929E
S11301C04F925F926F927F928F929F92AF92BF9263
S11301D0CF92DF92EF92FF920F931F93CF93DF930F
S11301E06B017C010E94380384B18C6284B984B1B0
S11301F08F7E84B985B1846085B98AB188608AB9F3
S113020081E58CBD2FEF81EE94E021508040904039
S1130210E1F700C0000085B18B7F85B925E02A9500
S1130220F1F7000088E88EBD0DB407FEFDCF8EB552
S11302301EBC0DB407FEFDCF9EB51EBC0DB407FE5B
S1130240FDCF0EB585E08A95F1F7000085B1846095
S113025085B910E0102F0027092B85B18B7F85B954
S11302608AE88EBD0DB407FEFDCF8EB51EBC0DB45D
S113027007FEFDCF9EB51EBC0DB407FEFDCFCEB567
S113028025E02A95F1F7000085B1846085B9D0E0B6
S1130290DC2FCC27C92B85B18B7F85B98CE88EBD2B
S11302A00DB407FEFDCF8EB51EBC0DB407FEFDCF09
S11302B09EB51EBC0DB407FEFDCF2EB485E08A9515
S11302C0F1F7000085B1846085B9312C322C2224E9
S11302D0292AC701B6010E94C7046B017C0120E0F2
S11302E030E040E858E30E9455054B015C01B80139
S11302F080E090E00E94C7042B013C0120E030E044
S113030040E85AE30E9455059B01AC01C501B401C4
S11303100E94B2034B015C01BE0180E090E00E94A8
S1130320C7049B01AC01C501B4010E9455054B01F2
S11303305C0120E030E040E057E3C701B6010E94D1
S113034055056B017C0120E030E040E059E3C30136
S1130350B2010E9455059B01AC01C701B6010E9480
S1130360B2039B01AC010E9455056B017C01B101F4
S1130370330C880B990B0E94C9049B01AC01C70183
S1130380B6010E9455059B01AC01C501B4010E9450
S1130390B3030E9491040E94C90420E030E040EAC3
S11303A055E40E941F040E949804DF91CF911F918D
S11303B00F91FF90EF90DF90CF90BF90AF909F9000
S11303C08F907F906F905F904F903F902F90089503
S11303D08BB180648BB985E08A95F1F700008BB10D
S11303E08F7B8BB987EC90E00197F1F700C0000098
S11303F008959BB1937C9BB983FF03C09BB1946028
S11304009BB982FF03C09BB198609BB981FF03C075
S11304109BB190619BB980FF03C08BB180628BB9A3
S11304200E94E8010895CF93C82F613021F48BB165
S113043080688BB903C08BB18F778BB98C2F829571
S11304408F700E94F9018C2F8F700E94F901CF9157
S11304500895CF93C82F60E00E941302C150C230A8
S113046030F48FE39FE10197F1F700C00000CF91D2
S1130470089561E00E9413020895882311F090E426
S113048001C090E0862F8F70890F80680E94290236
S11304900895CF93DF93EC0103C021960E943902A3
S11304A088818111FACFDF91CF9108958AB1806854
S11304B08AB98AB180648AB98AB18C638AB92FEF08
S11304C089EF90E0215080409040E1F700C00000A7
S11304D08BB18F778BB98BB18F7B8BB983E00E9403
S11304E0F9018FE19EE40197F1F700C0000083E079
S11304F00E94F90187E592E00197F1F700C000003E
S113050083E00E94F90187E592E00197F1F700C0CA
S1130510000082E00E94F90187E592E00197F1F77B
S113052000C0000088E20E94290288E00E9429029B
S113053081E00E94290286E00E9429028CE00E9448
S113054029020895CF93DF93EC018A30910568F076
S11305509C01ADECBCEC0E94C205969587959695DE
S11305608795969587950E94A2029E01ADECBCECFE
S11305700E94C20596958795969587959695879539
S11305809C01220F331F880F991F880F991F880F12
S1130590991F820F931F9E01281B390BC901805D8F
S11305A00E943902DF91CF9108950E9438030E947E
S11305B023030E9456020E944B00C82F0E9463002E
S11305C00E949A004B015C010E94DE006B017C01D9
S11305D080E091E00E944B038C2F0E9458038BE033
S11305E091E00E944B03C501B4010E9495030E944F
S11305F063008FE39CE90197F1F700C0000086E1F6
S113060091E00E944B03C701B6010E9495039FEF3E
S113061023ED80E3915020408040E1F700C00000CA
S11306208AE00E94440360E080E00E943D0284E28C
S113063091E00E94490260E081E00E943D02C6010F
S11306400E94A202C5CF84B18C6284B984B18F7E2A
S113065084B985B1846085B98AB188608AB981E535
S11306608CBD8FE39CE90197F1F700C00000089569
S11306701092C50087E68093C40088E08093C1008F
S113068086E08093C20008959091C00095FFFCCF4E
S11306908093C6000895CF93DF93EC0103C02196A5
S11306A00E94440388818111FACFDF91CF9108958C
S11306B0CF93DF93CDB7DEB766970FB6F894DEBF5E
S11306C00FBECDBF91E1E5E3F1E0DE0111960190AB
S11306D00D929A95E1F7982F92959F70E1E0F0E0E2
S11306E0EC0FFD1FE90FF11D90819A8B8F70E1E0F3
S11306F0F0E0EC0FFD1FE80FF11D80818B8B8DE086
S11307008C8B8AE08D8B1E8A82E391E00E944B03DE
S1130710CE0142960E944B0366960FB6F894DEBF54
S11307200FBECDBFDF91CF910895CF93DF93CDB7A7
S1130730DEB72C970FB6F894DEBF0FBECDBF2AE00C
S1130740AE014F5F5F4F0E94D105CE0101960E941A
S11307504B032C960FB6F894DEBF0FBECDBFDF91CE
S1130760CF9108955058BB27AA270E94CA030C941E
S11307701B050E940D0538F00E94140520F039F481
S11307809F3F19F426F40C940A050EF4E095E7FB58
S11307900C940405E92F0E942C0558F3BA1762073C
S11307A073078407950720F079F4A6F50C944E0599
S11307B00EF4E0950B2EBA2FA02D0B01B901900178
S11307C00C01CA01A0011124FF27591B99F0593FBC
S11307D050F4503E68F11A16F040A22F232F342F04
S11307E04427585FF3CF469537952795A795F04052
S11307F05395C9F77EF41F16BA0B620B730B840B67
S1130800BAF09150A1F0FF0FBB1F661F771F881F1E
S1130810C2F70EC0BA0F621F731F841F48F4879576
S113082077956795B795F7959E3F08F0B0CF939568
S1130830880F08F09927EE0F9795879508950E94E1
S113084033040C941B050E94140558F00E940D05F6
S113085040F029F45F3F29F00C94040551110C94E5
S11308604F050C940A050E942C0568F39923B1F3F3
S1130870552391F3951B550BBB27AA2762177307C2
S1130880840738F09F5F5F4F220F331F441FAA1F56
S1130890A9F335D00E2E3AF0E0E832D09150504012
S11308A0E695001CCAF72BD0FE2F29D0660F771FC0
S11308B0881FBB1F261737074807AB07B0E809F0A6
S11308C0BB0B802DBF01FF2793585F4F3AF09E3F2B
S11308D0510578F00C9404050C944F055F3FE4F344
S11308E0983ED4F3869577956795B795F7959F5F6E
S11308F0C9F7880F911D9695879597F90895E1E0BA
S1130900660F771F881FBB1F621773078407BA0718
S113091020F0621B730B840BBA0BEE1F88F7E09573
S113092008950E9498046894B1110C944F05089599
S11309300E94340588F09F5798F0B92F9927B75132
S1130940B0F0E1F0660F771F881F991F1AF0BA956F
S1130950C9F714C0B13091F00E944E05B1E008957A
S11309600C944E05672F782F8827B85F39F0B93F6C
S1130970CCF3869577956795B395D9F73EF4909522
S11309808095709561957F4F8F4F9F4F0895E894A0
S113099009C097FB3EF490958095709561957F4FC3
S11309A08F4F9F4F9923A9F0F92F96E9BB27939571
S11309B0F695879577956795B795F111F8CFFAF481
S11309C0BB0F11F460FF1BC06F5F7F4F8F4F9F4FB2
S11309D016C0882311F096E911C0772321F09EE810
S11309E0872F762F05C0662371F096E8862F70E076
S11309F060E02AF09A95660F771F881FDAF7880F50
S1130A009695879597F9089597F99F6780E870E020
S1130A1060E008959FEF80EC089500240A94161670
S1130A20170618060906089500240A9412161306D8
S1130A30140605060895092E0394000C11F4882366
S1130A4052F0BB0F40F4BF2B11F460FF04C06F5F82
S1130A507F4F8F4F9F4F089557FD9058440F551F58
S1130A6059F05F3F71F04795880F97FB991F61F02C
S1130A709F3F79F087950895121613061406551FA3
S1130A80F2CF4695F1DF08C0161617061806991F0F
S1130A90F1CF86957105610508940895E894BB2704
S1130AA066277727CB0197F908950E9468050C946F
S1130AB01B050E940D0538F00E94140520F09523B3
S1130AC011F00C9404050C940A0511240C944F05A0
S1130AD00E942C0570F3959FC1F3950F50E0551FAC
S1130AE0629FF001729FBB27F00DB11D639FAA277F
S1130AF0F00DB11DAA1F649F6627B00DA11D661FCE
S1130B00829F2227B00DA11D621F739FB00DA11DEE
S1130B10621F839FA00D611D221F749F3327A00DA8
S1130B20611D231F849F600D211D822F762F6A2F44
S1130B3011249F5750409AF0F1F088234AF0EE0FA9
S1130B40FF1FBB1F661F771F881F91505040A9F7D6
S1130B509E3F510580F00C9404050C944F055F3FB3
S1130B60E4F3983ED4F3869577956795B795F79512
S1130B70E7959F5FC1F7FE2B880F911D969587958A
S1130B8097F90895A29FB001B39FC001A39F700D70
S1130B90811D1124911DB29F700D811D1124911D81
S1130BA00895BB272A3051F4992342F4BDE290956D
S1130BB08095709561957F4F8F4F9F4F0C94E10501
S1130BC0BB27FA01A62F6217710581059105330B26
S1130BD030FB66F0AA27660F771F881F991FAA1F8C
S1130BE0A21710F0A21B63953850A9F7A05DAA3391
S1130BF008F0A95DA19336F7B111B1931082CA012F
S1130C000C940206DC01FC01672F71917723E1F754
S1130C10329704C07C916D9370836291AE17BF07C5
S10B0C20C8F30895F894FFCF16
S1130C280A436869702049443A2000526177205485
S1130C38656D703A20000A46696E616C2054656DD2
S1130C48703A200054656D70657261747572653A06
S1130C582000307800303132333435363738394172
S1090C684243444546002E
S9030000FC
